:020000040800F2
:1000000000000120295400087954000879540008A0
:100010007954000879540008795400080000000061
:100020000000000000000000000000008142000805
:1000300079540008000000002143000849500008DE
:10004000795400087954000879540008795400085C
:10005000795400087954000879540008795400084C
:10006000795400087954000879540008795400083C
:100070007954000879540008515000086150000874
:10008000795400087954000879540008795400081C
:10009000795400087954000879540008795400080C
:1000A0007954000871500008795400087954000808
:1000B0007954000800000000000000007954000896
:1000C0007954000800000000000000007954000886
:1000D000000000008950000879540008000000006A
:1000E0007954000879540008000000000000000066
:1000F0000000000000000000000000000000000000
:10010000000000000000000000000000795400081A
:100110000000000000000000795400087954000835
:10012000795400087954000879540008795400087B
:1001300079540008000000000000000000000000EA
:10014000795400087954000879540008795400085B
:10015000795400087954000879540008795400084B
:100160007954000879540008795400080000000010
:1001700079540008795400080000000000000000D5
:1001800079540008795400087954000800000000F0
:1001900010B5054C237833B9044B13B10448AFF3C1
:1001A00000800123237010BD180000200000000013
:1001B000DC5400080C4B43B10C480D4910B5AFF3AB
:1001C00000800C48036823B910BD0A48036833B99E
:1001D0007047094B002BF7D0BDE810401847064B7D
:1001E000002BF5D0184700BF00000000DC540008C9
:1001F0001C000020180000200000000053B94AB97C
:10020000002908BF00281CBF4FF0FF314FF0FF301E
:1002100000F07AB9ADF1080C6DE904CE00F006F8F3
:10022000DDF804E0DDE9022304B070472DE9F04772
:100230008C460D460446089E002B51D18A42174633
:100240006DD9B2FA82FEBEF1000F0BD0CEF1200CB8
:1002500001FA0EF520FA0CFC02FA0EF74CEA050C36
:1002600000FA0EF44FEA174A250CBCFBFAF81FFA05
:1002700087F90AFB18CC45EA0C4508FB09F3AB42A9
:100280000AD9ED1908F1FF3280F02381AB4240F228
:100290002081A8F102083D44ED1AA4B2B5FBFAF0A2
:1002A0000AFB105544EA054400FB09F9A14509D9A8
:1002B000E41900F1FF3380F00A81A14540F2078183
:1002C00002383C44A4EB090440EA08400021002E17
:1002D00061D024FA0EF4002334607360BDE8F08727
:1002E0008B4207D9002E54D0002186E82100084611
:1002F000BDE8F087B3FA83F1002940F08E80AB426D
:1003000002D3824200F2FA80841A65EB03050120D1
:10031000AC46002E3FD086E81010BDE8F08712B939
:100320000127B7FBF2F7B7FA87FEBEF1000F34D111
:10033000EB1B3A0C1FFA87FC0121B3FBF2F8250CEA
:1003400002FB183345EA03450CFB08F3AB4207D91F
:10035000ED1908F1FF3002D2AB4200F2D1808046A5
:10036000ED1AA3B2B5FBF2F002FB105543EA0544C7
:100370000CFB00FCA44507D9E41900F1FF3302D2BD
:10038000A44500F2B8801846A4EB0C0440EA0840EB
:100390009DE731463046BDE8F087CEF1200405FAEE
:1003A0000EF307FA0EF720FA04F83A0C25FA04F4D3
:1003B00048EA0308B4FBF2F14FEA184502FB114486
:1003C0001FFA87FC45EA044501FB0CF3AB4200FA37
:1003D0000EF409D9ED1901F1FF3080F08A80AB42AB
:1003E00040F2878002393D44EB1A1FFA88F5B3FBCF
:1003F000F2F002FB103345EA034500FB0CF3AB427D
:1004000007D9ED1900F1FF386FD2AB426DD9023830
:100410003D44EB1A40EA01418FE7C1F1200722FA7F
:1004200007F88B4005FA01F448EA030320FA07FEB7
:100430004FEA134CFD404EEA040EB5FBFCF94FEABF
:100440001E440CFB19551FFA83F844EA054509FBC5
:1004500008F4AC4202FA01F200FA01FA08D9ED18E8
:1004600009F1FF3043D2AC4241D9A9F102091D4440
:100470002D1B1FFA8EFEB5FBFCF00CFB10554EEA4F
:10048000054400FB08F8A04507D9E41800F1FF3542
:1004900029D2A04527D902381C4440EA0940A4EBE0
:1004A0000804A0FB02894C45C6464D4615D312D020
:1004B00056B1BAEB0E0364EB050404FA07F7CB4020
:1004C0001F43CC40376074600021BDE8F0871846B8
:1004D000F8E69046E0E6C245EAD2B8EB020E69EBD8
:1004E00003050138E4E72846D7E7404691E781460F
:1004F000BEE7014678E702383C4445E7084608E78E
:10050000A8F102083D442BE7704700BF08B503205F
:1005100000F016F8002004F059FD04F00FFD002053
:1005200008BD0000024A136801331360704700BF22
:10053000A40F0020014B1868704700BFA40F0020D3
:10054000074AD36823F4E0631B041B0C000200F489
:10055000E060184340F0BF6040F40030D060704766
:1005600000ED00E030B4164BDB68C3F30223C3F1A7
:100570000704042C28BF04241D1D062D17D9033B96
:10058000012505FA04F4013C2140994005FA03F3E2
:10059000013B1340194300280BDB0901C9B200F1EC
:1005A000604000F5614080F8001330BC70470023C4
:1005B000E6E700F00F000901C9B2024B1954F4E755
:1005C00000ED00E014ED00E0420900F01F000123FF
:1005D00003FA00F0014B43F82200704700E100E00D
:1005E0000138B0F1807F0AD2064B5860F021064AEC
:1005F00082F823100020986007221A6070470120BB
:10060000704700BF10E000E000ED00E0042805D0D6
:10061000054A136823F0040313607047024A136805
:1006200043F004031360704710E000E070B4066C00
:10063000446C04F01C050124AC40746004686360E1
:100640008368102B05D0036899600368DA6070BC7A
:10065000704703689A600368D960F8E7002869D09A
:1006600010B403460168344A914245D8334A0A44DB
:100670003349A1FB0212120992004264314A02641A
:10068000022283F825201868016821F4FF4121F037
:1006900070019A68DC6822431C6922435C6922432A
:1006A0009C692243DC6922431C6A22430A4302609C
:1006B0009A68B2F5804F15D0196C224A914226D023
:1006C000214A1168586C00F01C040F20A04021EA58
:1006D00000011160116858685C6C04F01C04A040B3
:1006E000014311600020D863012283F8252083F89C
:1006F00024005DF8044B7047144A0A441049A1FBDA
:100700000212120992004264114A0264B8E7A83248
:100710001168586C00F01C040F20A04021EA000171
:100720001160116858685C6C04F01C04A04001431F
:100730001160D7E70120704707040240F8FFFDBFB2
:10074000CDCCCCCC00000240A8040240F8FBFDBF99
:100750000004024038B590F82440012C33D0012425
:1007600080F8244090F82540E4B2012C04D0002306
:1007700080F82430022038BD0446022084F8250089
:100780000020E0632568286820F0010028602046EA
:10079000FFF74CFF236B5BB12268136843F00E0335
:1007A00013602268136843F001031360002038BD12
:1007B0002268136823F0040313602268136843F06F
:1007C0000A031360EDE7022038BD0346B8B10168A3
:1007D0000A6822F00E020A6001680A6822F001022B
:1007E0000A60006C5A6C02F01C02012101FA02F24C
:1007F000426083F82510002083F824007047012010
:10080000704708B590F82530DBB2022B03D00423E3
:10081000C363012008BD0268136823F00E03136050
:100820000268136823F001031360016C436C03F04A
:100830001C03012202FA03F34B6080F825200023F9
:1008400080F82430836B13B19847002008BD002046
:1008500008BD38B5036C196804682568436C03F05B
:100860001C0304229A40114216D015F0040F13D035
:10087000236813F0200F03D1236823F004032360BF
:10088000016C436C03F01C02042393404B60036B28
:10089000002B3ED0984738BD02229A4011421BD00F
:1008A00015F0020F18D0236813F0200F06D123682B
:1008B00023F00A032360012380F82530016C436C88
:1008C00003F01C02022393404B60002380F8243085
:1008D000C36AF3B1984738BD082202FA03F31942FC
:1008E00017D015F0080F14D0236823F00E032360EF
:1008F000016C436C03F01C03012202FA03F34B600A
:10090000C26380F82520002380F82430436B03B1B4
:10091000984738BDF0B583B0002384E0DE08083680
:1009200050F8264003F0070E4FEA8E0E0F2707FA05
:100930000EF724EA07040F6907FA0EF73C4340F864
:1009400026407FE086682640CF6807FA0EF73E43D0
:100950008660466826EA05054E68C6F300169E4086
:1009600035434560C5682C408D6805FA0EF52C436B
:10097000C4604C6814F0805F54D0444C256E45F040
:1009800001052566246E04F001040194019C9D0874
:10099000AE1C3F4C54F8264003F00306B6000F2768
:1009A000B74024EA0704B0F1904F68D0394FB842FD
:1009B00067D007F58067B8425FD0072707FA06F6C9
:1009C00034430235324E46F82540334C2568D44333
:1009D00005EA04064F6817F4803F01D042EA050695
:1009E0002D4D2E606D6804EA05064F6817F4003F30
:1009F00001D042EA0506284D6E60AD6804EA05069E
:100A00004F6817F4801F01D042EA0506224DAE6000
:100A1000ED682C404E6816F4001F01D042EA050430
:100A20001D4AD46001330A6832FA03F42BD0012541
:100A30009D402A40F6D04C68022C3FF46FAF122C38
:100A40003FF46CAF06684FEA430E032404FA0EF439
:100A5000E44326404F6807F0030707FA0EF73E43CA
:100A600006604E68771E012F7FF66CAF112E3FF4A3
:100A700069AF122E7FF476AF64E702279EE7002766
:100A80009CE701279AE703B0F0BD00BF00100240C9
:100A90000000014000040048000401400AB98162DE
:100AA0007047816170470000024A136843F4807305
:100AB0001360704700700040024B186800F4C0607B
:100AC000704700BF00700040B0F5007F0FD0204B92
:100AD0001B6803F4C063B3F5806F37D01C4A1368FA
:100AE00023F4C06343F48063136000207047184B05
:100AF0001B6803F4C063B3F5007F23D0144A136866
:100B000023F4C06343F400731360124B1B6802F1BB
:100B1000467202F55B3202F28322A2FB03239A0C97
:100B2000322303FB02F300E0013B23B1084A526980
:100B300012F4806FF8D1064B5B6913F4806F03D019
:100B40000320704700207047002070470020704746
:100B5000007000401000002030B583B00546204BE7
:100B60009B6D13F0805F0BD0FFF7A6FFB0F5007F01
:100B700017D0802D1FD82DD0702D2DD000211BE037
:100B8000174CA36D43F08053A365A36D03F080530E
:100B90000193019BFFF790FFA36D23F08053A365A2
:100BA000E4E7802D03D9A02D03D9022104E0002120
:100BB00002E0012100E003210A4A136823F0070341
:100BC0000B431360136803F00703994206D001201A
:100BD00003B030BD0221EFE70121EDE70020F7E788
:100BE00000100240002002403B4B9B6813F00C0FAA
:100BF0001AD0394B9B6803F00C030C2B0ED0364BEC
:100C00009B6803F00C03042B2FD0334B9B6803F03D
:100C10000C03082B2CD00020014618E02E4BDB687B
:100C200003F00303012BEAD12B4B1B6813F0080FD1
:100C300014D1294BD3F89430C3F30323274A52F835
:100C40002310254B9B6813F00C0F0CD00020224A78
:100C5000936803F00C030C2B0DD070471E4B1B68E0
:100C6000C3F30313EAE70846F1E71D480021EEE766
:100C70001C480021EBE71346D26802F00302DB6850
:100C8000C3F302130133022A0AD0032A1AD0B1FB9C
:100C9000F3F3114AD068C0F3062000FB03F008E02C
:100CA0000F48B0FBF3F30C4AD068C0F3062000FBFA
:100CB00003F0094BDB68C3F3416301335B00B0FB16
:100CC000F3F0CAE70748B0FBF3F3034AD068C0F378
:100CD000062000FB03F0ECE70010024094550008EA
:100CE0000024F40000127A00002800F0D78270B5CA
:100CF00082B00446036813F0100F3FD0974B9B68F7
:100D000013F00C0F40F09280944B1B6813F0020F0D
:100D100003D08369002B00F0C382206A8F4B1B68CD
:100D200013F0080F62D08D4B1B6803F0F003834271
:100D300063D2FFF711FF002840F0B482874B1A6896
:100D400042F008021A601A6822F0F002216A0A438F
:100D50001A605A6822F47F42E16942EA01225A602D
:100D6000FFF742FF7D4B9B68C3F303137C4AD35CC0
:100D7000D8407C4B1860002004F028F9236813F059
:100D8000010F00F0A180754B9B6803F00C03082B4A
:100D900000F09180714B9B6803F00C030C2B00F06A
:100DA00083806368B3F5803F00F0B580B3F5A02F72
:100DB00000F0B780694B1A6822F480321A601A6812
:100DC00022F480221A606368002B00F0B780FFF7DE
:100DD000B1FB0546614B1B6813F4003F74D1FFF76C
:100DE000A9FB401B6428F5D9032062E25B4BD3F8D2
:100DF00094301B0903F0F00399E7584B1A6842F04E
:100E000008021A601A6822F0F002216A0A431A6086
:100E10005A6822F47F42E16942EA01225A60206A5C
:100E2000FFF79AFE00289BD0012042E2836933B38A
:100E30004A4A136843F001031360FFF77BFB054642
:100E4000464B1B6813F0020F06D1FFF773FB401BE4
:100E50000228F5D903202CE2404B1A6842F0080220
:100E60001A601A6822F0F002216A0A431A605A686E
:100E700022F47F42E16942EA01225A607EE7374A62
:100E8000136823F001031360FFF754FB0546334B4F
:100E90001B6813F0020F3FF471AFFFF74BFB401BD1
:100EA0000228F4D9032004E22C4BDB6803F003038F
:100EB000032B7FF476AF294B1B6813F4003F03D05C
:100EC0006368002B00F0F081236813F0020F62D0FA
:100ED000224B9B6803F00C03042B4BD01F4B9B68E9
:100EE00003F00C030C2B3FD0E368002B79D01B4A96
:100EF000136843F480731360FFF71CFB0546174B20
:100F00001B6813F4806F63D1FFF714FB401B0228AA
:100F1000F5D90320CDE1114A136843F480331360FF
:100F200051E703F18043A3F53C331A6842F4802271
:100F30001A601A6842F480321A6044E7FFF7FAFA3E
:100F40000546064B1B6813F4003FBDD0FFF7F2FACD
:100F5000401B6428F5D90320ABE100BF001002401C
:100F6000C455000810000020B14BDB6803F00303F8
:100F7000022BB9D1AE4B1B6813F4806F03D0E3682A
:100F8000002B00F09381AA4A536823F0F85321699B
:100F900043EA01635360236813F0080F4CD0636980
:100FA0009BB3A34AD2F8943043F00103C2F89430C3
:100FB000FFF7C0FA05469E4BD3F8943013F0020FAA
:100FC0003AD1FFF7B7FA401B0228F4D9032070E1A9
:100FD000974A536823F0F853216943EA0163536049
:100FE000D9E7934A136823F480731360FFF7A2FADA
:100FF00005468F4B1B6813F4806FCCD0FFF79AFA2D
:10100000401B0228F5D9032053E1894AD2F89430D5
:1010100023F00103C2F89430FFF78CFA0546844BA5
:10102000D3F8943013F0020F06D0FFF783FA401B79
:101030000228F4D903203CE1236813F0040F7AD08E
:101040007B4B9B6D13F0805F36D1794B9A6D42F0EC
:1010500080529A659B6D03F080530193019B01259B
:10106000744B1B6813F4807F28D0A368012B39D000
:10107000052B3FD06E4BD3F8902022F00102C3F82D
:101080009020D3F8902022F00402C3F89020A368A7
:10109000002B3DD0FFF74EFA0646654BD3F8903053
:1010A00013F0020F46D1FFF745FA801B41F2883357
:1010B0009842F2D90320FCE00025D1E75D4A13688D
:1010C00043F480731360FFF735FA0646594B1B68EB
:1010D00013F4807FC9D1FFF72DFA801B0228F5D9C0
:1010E0000320E6E0524AD2F8903043F00103C2F800
:1010F0009030CCE74E4BD3F8902042F00402C3F876
:101100009020D3F8902042F00102C3F89020BEE76F
:10111000FFF710FA0646464BD3F8903013F0020F53
:1011200008D0FFF707FA801B41F288339842F2D9C2
:101130000320BEE0E5B9236813F0200F35D0636AC1
:10114000E3B13B4AD2F8983043F00103C2F898303B
:10115000FFF7F0F90546364BD3F8983013F0020F3D
:1011600023D1FFF7E7F9401B0228F4D90320A0E0C0
:101170002F4A936D23F080539365DCE72C4AD2F815
:10118000983023F00103C2F89830FFF7D3F90546F1
:10119000274BD3F8983013F0020F06D0FFF7CAF9A7
:1011A000401B0228F4D9032083E0A36A002B7FD0E0
:1011B0001F4A926802F00C020C2A7CD0022B23D02A
:1011C0001B4B1A6822F080721A601B6813F0006FC4
:1011D00004D1174AD36823F00303D360144AD368B9
:1011E00023F0887323F48033D360FFF7A3F9044618
:1011F0000F4B1B6813F0007F4ED0FFF79BF9001BCD
:101200000228F5D9032054E0094A136823F08073BB
:101210001360FFF78FF90546054B1B6813F0007F3D
:101220000AD0FFF787F9401B0228F5D9032040E0D8
:101230000010024000700040236B5A1E636B1B02BB
:1012400043EA0213E26A1343E26B5208013A43EAAB
:101250004253226C5208013A43EA4263A26B43EACA
:10126000C263164AD360136843F080731360D36877
:1012700043F08073D360FFF75DF904460F4B1B68A2
:1012800013F0007F06D1FFF755F9001B0228F5D9AE
:1012900003200EE000200CE000200AE0012070474F
:1012A000012006E0012004E0012002E0012000E02E
:1012B000002002B070BD0120FBE700BF001002401B
:1012C000002800F0998070B504464D4B1B6803F070
:1012D00007038B420CD24A4A136823F007030B43DF
:1012E0001360136803F00703994201D0012070BD19
:1012F0000D46236813F0010F39D06368032B09D022
:10130000022B26D063BB3F4A126812F0020F06D1AF
:10131000012070BD3B4A126812F0007F6ED039493F
:101320008A6822F0030213438B60FFF703F9064635
:10133000344B9B6803F00C036268B3EB820F16D04A
:10134000FFF7F8F8801B41F288339842F0D9032068
:1013500070BD2C4A126812F4003FE0D1012070BD2C
:10136000284A126812F4806FD9D1012070BD236819
:1013700013F0020F06D0234A936823F0F003A1680C
:101380000B4393601E4B1B6803F007039D420CD276
:101390001B4A136823F007032B431360136803F001
:1013A00007039D4201D0012070BD236813F0040F94
:1013B00006D0144A936823F4E063E1680B4393601A
:1013C000236813F0080F07D00E4A936823F4605384
:1013D000216943EAC1039360FFF706FC094B9B6850
:1013E000C3F30313084AD35CD840084B18600020AD
:1013F00003F0ECFD002070BD01207047012070BD9E
:101400000020024000100240C455000810000020D7
:10141000014B1868704700BF1000002008B5FFF7A7
:10142000F7FF044B9B68C3F30223034AD35CD84005
:1014300008BD00BF00100240D455000808B5FFF7F2
:10144000E7FF044B9B68C3F3C223034AD35CD84035
:1014500008BD00BF00100240D45500080F230360F0
:101460000B4B9A6802F0030242609A6802F0F002A5
:1014700082609A6802F4E062C2609B68DB0803F451
:10148000E0630361034B1B6803F007030B607047C5
:101490000010024000200240F8B55D4BDB6813F0FD
:1014A000030F19D05A4BDB6803F003030268934221
:1014B00004D00124002C48D02046F8BD002A42D098
:1014C000534BDB68C3F3021301334268934201D0EC
:1014D0000124EFE70024EDE70368022B18D0032B6B
:1014E0001DD0012B0DD00124002CE3D1484EF26811
:1014F00022F073024568013D43EA05131343F3608C
:10150000D8E7434A126812F0020F14D00024EBE728
:101510003F4A126812F4806F0FD00024E4E73C4A7F
:10152000126812F4003F0AD1394A126812F4802F6F
:1015300007D00024D8E70124D6E70124D4E700240B
:10154000D2E70124D0E70124B4E70F460546304A2C
:10155000136823F080631360FEF7ECFF06462C4B04
:101560001B6813F0006F05D0FEF7E4FF801B022814
:10157000F5D90324002C9FD147BB25490B6923F0E3
:10158000784323F4FE43A868EA68D20642EA0022C0
:1015900013430B611E4A136843F080631360FEF728
:1015A000C9FF06461A4B1B6813F0006F05D1FEF702
:1015B000C1FF801B0228F5D90324002C7FF47CAFE7
:1015C000134A1369A9690B43136175E7012F0FD003
:1015D0000F48026922F0C06222F4FE42A9686B69DA
:1015E0005B08013B5B0643EA012313430361D1E738
:1015F0000748026922F4C00222F4FE42A9682B695E
:101600005B08013B5B0543EA012313430361C1E728
:10161000001002402DE9F04182B00446036813F443
:10162000006F24D0C36BB3F5000F13D0B3F5400F98
:1016300002D0B3B1012700E00027002F6FD1AD4ADF
:10164000D2F8883023F44003E16B0B43C2F88830B2
:101650003E460EE0A74AD36843F48033D3600027A8
:10166000EBE700210430FFF717FF0746E5E7002608
:101670003746236813F4003F6DD09E4B9B6D13F0EB
:10168000805F4ED19B4B9A6D42F080529A659B6D64
:1016900003F080530193019B4FF00108964A1368B1
:1016A00043F480731360FEF745FF0546924B1B68B9
:1016B00013F4807F05D1FEF73DFF401B0228F5D9CA
:1016C0000327002F42D18B4BD3F8903013F4407393
:1016D00015D0226D934212D0864AD2F8903023F46E
:1016E0004073D2F8901041F48031C2F89010D2F8D3
:1016F000901021F48031C2F89010C2F8903013F0AD
:10170000010F11D1002F40F0CB807A4AD2F89030EF
:1017100023F44073216D0B43C2F8903017E03E462E
:10172000A7E74FF00008B9E7FEF704FF0546714B45
:10173000D3F8903013F0020FE4D1FEF7FBFE401B0C
:1017400041F288339842F2D90327DBE73E46B8F1ED
:10175000000F40F0A780236813F0010F08D0654AFE
:10176000D2F8883023F00303216A0B43C2F8883093
:10177000236813F0020F08D05E4AD2F8883023F0B5
:101780000C03616A0B43C2F88830236813F0200F02
:1017900008D0584AD2F8883023F44063A16A0B433A
:1017A000C2F88830236813F4007F08D0514AD2F879
:1017B000883023F44023616B0B43C2F888302368E0
:1017C00013F4806F08D04B4AD2F8883023F44013CA
:1017D000A16B0B43C2F88830236813F0400F08D088
:1017E000444AD2F8883023F44053E16A0B43C2F8EC
:1017F0008830236813F4807F08D03E4AD2F88830BE
:1018000023F44033216B0B43C2F88830236813F470
:10181000005F0FD0374AD2F8883023F04063216C44
:101820000B43C2F88830236CB3F1006F40D0B3F1A2
:10183000806F42D0236813F4802F0FD02D4AD2F846
:10184000883023F04063616C0B43C2F88830636CCE
:10185000B3F1006F39D0B3F1806F3BD0236813F43C
:10186000804F0CD0234AD2F8883023F04053A16C2B
:101870000B43C2F88830A36CB3F1805F32D0236889
:1018800013F4004F08D01B4AD2F8883023F080436D
:10189000E16C0B43C2F88830304602B0BDE8F081FD
:1018A0003E4654E7134A936D23F08053936552E705
:1018B000D36843F48013D360BCE70121201DFFF7F8
:1018C000EBFD0028B6D00646B4E7D36843F4801396
:1018D000D360C3E70121201DFFF7DEFD0028BDD046
:1018E0000646BBE70221201DFFF7D6FD0028C6D023
:1018F0000646C4E70010024000700040024A136828
:1019000043F00403136070470010024030B4036AD0
:1019100023F001030362036A4468826922F480327F
:1019200022F073020D682A4323F002038D682B43D3
:10193000154DA84219D005F5A055A84215D005F5BA
:101940008065A84211D0104DA84215D005F5A055CC
:10195000A84211D005F58065A8420DD0446082618F
:101960004A684263036230BC704723F00803CD68C5
:101970002B4323F00403E6E724F440744D692C4321
:101980008D692C43EAE700BF002C014030B4036AA4
:1019900023F480730362036A4468C26922F48032CC
:1019A00022F073020D682A4323F400738D6843EA22
:1019B0000523134DA84211D0114DA84216D005F5AC
:1019C000A055A84212D005F58065A8420ED044600B
:1019D000C2614A68C263036230BC704723F400638B
:1019E000CD6843EA052323F48063E5E724F44054FB
:1019F0004D6944EA05148D6944EA0514E7E700BF20
:101A0000002C014030B4036A23F480530362026A5D
:101A10004468C36923F0807323F4E6430D6843EA06
:101A2000052322F400528D6842EA05320B4DA8428C
:101A30000ED005F5A055A8420AD005F58065A8424C
:101A400006D04460C3614B680364026230BC7047D7
:101A500024F480444D6944EA8514F2E7002C0140E7
:101A600030B4036A23F480330362026A4468436D2E
:101A700023F4803323F070030D682B4322F40032EB
:101A80008D6842EA05420C4DA8420ED005F5A055DE
:101A9000A8420AD005F58065A84206D04460436597
:101AA0004B688365026230BC704724F480344D6912
:101AB00044EA0524F2E700BF002C014030B4036A79
:101AC00023F480130362026A4468436D23F0807339
:101AD00023F4E0430D6843EA052322F400128D68E5
:101AE00042EA05520B4DA8420ED005F5A055A8427A
:101AF0000AD005F58065A84206D0446043654B686E
:101B0000C365026230BC704724F480244D6944EA06
:101B10008524F2E7002C014010B4036A046A24F023
:101B200001040462846924F0F00444EA021223F000
:101B30000A030B43826103625DF8044B704710B4E3
:101B4000036A23F0100303628469036A24F4704477
:101B500044EA023223F0A00343EA011382610362E4
:101B60005DF8044B7047836823F07003194341F01C
:101B700007018160704700000268D36843F00103E9
:101B8000D36003689968084A0A40062A09D0996810
:101B9000054A0A40B2F5803F03D01A6842F00102BC
:101BA0001A600020704700BF0700010070477047AF
:101BB000704770477047704710B5044603681A694C
:101BC00012F0020F11D0DA6812F0020F0DD06FF090
:101BD00002021A610123037703689B6913F0030F64
:101BE00079D0FFF7E6FF0023237723681A6912F004
:101BF000040F12D0DA6812F0040F0ED06FF0040256
:101C00001A610223237723689B6913F4407F68D00D
:101C10002046FFF7CEFF0023237723681A6912F0CE
:101C2000080F12D0DA6812F0080F0ED06FF0080219
:101C30001A61042323772368DB6913F0030F57D05D
:101C40002046FFF7B6FF0023237723681A6912F0B6
:101C5000100F12D0DA6812F0100F0ED06FF01002D1
:101C60001A61082323772368DB6913F4407F46D089
:101C70002046FFF79EFF0023237723681A6912F09E
:101C8000010F03D0DA6812F0010F3FD123681A69FF
:101C900012F0800F03D0DA6812F0800F3DD1236874
:101CA0001A6912F4807F03D0DA6812F0800F3BD1FA
:101CB00023681A6912F0400F03D0DA6812F0400F5F
:101CC00039D123681A6912F0200F03D0DA6812F0B4
:101CD000200F37D110BDFFF76BFF2046FFF76AFFDB
:101CE00081E72046FFF764FF2046FFF763FF92E796
:101CF0002046FFF75DFF2046FFF75CFFA3E7204685
:101D0000FFF756FF2046FFF755FFB4E76FF00102DB
:101D10001A61204603F078F8B8E76FF080021A6184
:101D2000204600F07CFABAE76FF480721A61204610
:101D300000F076FABCE76FF040021A612046FFF728
:101D40003AFFBEE76FF020021A61204600F066FA03
:101D5000C0E7000003681C4A904227D0B0F1804FD2
:101D600024D0194A904226D0B0F1804F23D002F5FA
:101D7000A05290421FD002F5806290421BD023F007
:101D800080034A69134303608B68C3620B688362F4
:101D90000D4B984214D003F5A053984210D003F590
:101DA000806398420CD001234361704723F0700395
:101DB0004A681343D5E723F44073CA681343DEE748
:101DC0000B690363EFE700BF002C0140A8B110B519
:101DD000044690F83D305BB1022384F83D30211D6C
:101DE0002068FFF7B7FF012384F83D30002010BDC5
:101DF00080F83C3003F09AF9EEE701207047A8B173
:101E000010B5044690F83D305BB1022384F83D30B4
:101E1000211D2068FFF79EFF012384F83D3000203C
:101E200010BD80F83C30FFF7C1FEEEE7012070479F
:101E3000F8B138B504460D4690F83D30A3B1022301
:101E400084F83D30211D2068FFF784FF2268136865
:101E500023F008031360226813682B4313600123E7
:101E600084F83D30002038BD80F83C30FFF79FFEFD
:101E7000E5E701207047000030B4036A23F0100347
:101E80000362036A4468826922F0807222F4E642A7
:101E90000D6842EA052223F020038D6843EA05130A
:101EA000124DA84211D0114DA84216D005F5A055EB
:101EB000A84212D005F58065A8420ED04460826128
:101EC0004A688263036230BC704723F08003CD68A8
:101ED00043EA051323F04003E5E724F440644D6929
:101EE00044EA85048D6944EA8504E7E7002C014053
:101EF00038B590F83C30012B00F092800D46044636
:101F0000012380F83C30022380F83D30142A1ED88B
:101F1000DFE802F00B1D1D1D241D1D1D381D1D1D9C
:101F20004B1D1D1D5F1D1D1D72000068FFF7EEFC9F
:101F30002268936943F0080393612268936923F050
:101F4000040393612268936929690B439361012318
:101F500084F83D30002084F83C0038BD0068FFF76D
:101F60008BFF2268936943F400639361226893694D
:101F700023F48063936122689369296943EA01230A
:101F80009361E4E70068FFF701FD2268D36943F03D
:101F90000803D3612268D36923F00403D361226864
:101FA000D36929690B43D361D1E70068FFF72AFDA4
:101FB0002268D36943F40063D3612268D36923F4B0
:101FC0008063D3612268D369296943EA0123D3611D
:101FD000BDE70068FFF744FD2268536D43F0080336
:101FE00053652268536D23F0040353652268536DD3
:101FF00029690B435365AAE70068FFF75FFD226874
:10200000536D43F4006353652268536D23F480637A
:1020100053652268536D296943EA0123536596E7A6
:10202000022038BD10B4846824F47F4442EA0323BC
:1020300019430C4384605DF8044B704790F83C30C2
:10204000012B73D010B50446012380F83C300223E5
:1020500080F83D3002689068354B034093600B6810
:10206000402B59D010D9702B3CD01BD8502B49D0C5
:10207000602B30D1CA6849682068FFF760FD602195
:102080002068FFF770FD26E0102B06D004D9202B26
:1020900003D0302B01D01EE0EBB919462068FFF7C2
:1020A00062FD18E0B3F5805F0ED0B3F5005F12D18A
:1020B000CB684A6889682068FFF7B4FF2268936894
:1020C00043F48043936006E02268936823F48033EE
:1020D00023F007039360012384F83D30002084F847
:1020E0003C0010BDCB684A6889682068FFF79AFFFA
:1020F0002268936823F4803323F0770343F0770357
:102100009360E8E7CA6849682068FFF705FD502139
:102110002068FFF728FDDEE7CA6849682068FFF7F6
:10212000FBFC40212068FFF71EFDD4E7022070472A
:102130008800FEFF10B401F01F01012303FA01F42F
:10214000036A23EA04030362036A8A4013430362B7
:102150005DF8044B7047000010B50446012200688A
:10216000FFF7E8FF2368144A934221D002F5A052FA
:1021700093421FD002F58062934217D000221AB119
:102180005A6C42F400425A64236899680B4A0A4028
:10219000062A09D09968094A0A40B2F5803F03D05F
:1021A0001A6842F001021A60002010BD0122E6E721
:1021B0000122E4E70122E2E7002C014007000100D0
:1021C00090F83C30012B25D030B4012380F83C300E
:1021D000022380F83D3004686368A2680E4DAC426B
:1021E00013D023F070030D682B4322F0800289681E
:1021F0000A43636003689A60012380F83D3000233E
:1022000080F83C30184630BC704723F470034D68AA
:102210002B43E6E702207047002C014070477047CF
:1022200070470268136823F0C0031360202380F80E
:10223000713070470268136823F49073136002686A
:10224000936823F001039360202380F87230002309
:102250000366704790F87230DBB2202B01D0022069
:102260007047002956D0002A56D090F87030012BC4
:1022700054D0012380F870304165A0F85820A0F8B0
:102280005A20002303668368B3F5805F06D0A3B9A4
:10229000036973B9FF23A0F85C3011E0036923B927
:1022A00040F2FF13A0F85C300AE0FF23A0F85C3096
:1022B00006E07F23A0F85C3002E0B3F1805F19D024
:1022C00000234367222380F872300268936843F04A
:1022D000010393608368B3F5805F15D0104B0366EC
:1022E000002380F8703001680A6842F490720A6036
:1022F0001846704703691BB97F23A0F85C30DFE7FD
:102300003F23A0F85C30DBE70369002BE6D1054BE7
:102310000366E5E7012070470120704702207047FF
:1023200043250008A725000838B590F87140E4B2AD
:10233000202C01D0022038BD002933D0002A33D010
:1023400090F87030012B01D1022038BD13460446AD
:10235000012280F87020C164A0F85030A0F85230FB
:1023600000254567212280F87120826E0F49D162D5
:10237000826E0F491163826E0E495163826E9563BE
:1023800002682832C16C806EFEF7E4F923684022AF
:102390001A6284F870502268936843F08003936057
:1023A000284638BD012038BD012038BDE924000889
:1023B000392500085926000838B590F87240E4B273
:1023C000202C01D0022038BD002938D0002A38D076
:1023D00090F87030012B01D1022038BD134604461D
:1023E000012280F870204165A0F85830002545672B
:1023F000222280F87220C26E1349D162C26E134944
:102400001163C26E12495163C26E95630168426DD9
:102410002431C06EFEF79EF984F87050226813686C
:1024200043F4807313602268936843F00103936060
:102430002268936843F040039360284638BD01202A
:1024400038BD012038BD00BF0B2600084D2600080E
:102450005926000810B504460268136823F0C0032B
:10246000136003689A6812F0800F0AD09A6822F00D
:1024700080029A60836E23B100229A63806EFEF719
:10248000A4F90020A4F85200202384F8713010BD74
:1024900010B504460268136823F490731360026851
:1024A000936823F00103936003689A6812F0400F69
:1024B0000AD09A6822F040029A60C36E23B10022CB
:1024C0009A63C06EFEF781F90020A4F85A002368D1
:1024D0000F221A622268138B9BB243F00803138306
:1024E000202384F8723010BD08B5836A0268126830
:1024F00012F0200F0DD10022A3F8522019688A682B
:1025000022F080028A601A68136843F04003136067
:1025100008BD184602F0B6FA08BD08B501680A6899
:1025200022F040020A60202280F8712000224266D8
:1025300002F0A8FA08BD704708B5806AFFF7FBFFF4
:1025400008BDB0F85C2090F87230DBB2222B06D0C8
:102550000268138B9BB243F008031383704710B5D6
:102560000368998C436D5C1C4465D2B20A401A70B2
:10257000B0F85A309BB2013B9BB2A0F85A3003B17D
:1025800010BD0268136823F49073136002689368A7
:1025900023F001039360202380F872300023036648
:1025A00002F0B4F910BD08B5B0F85C2090F87230B4
:1025B000DBB2222B06D00268138B9BB243F00803D8
:1025C000138308BD0368998C436D0A401A80436DDC
:1025D00002334365B0F85A309BB2013B9BB2A0F87E
:1025E0005A30002BEDD10268136823F49073136006
:1025F0000268936823F001039360202380F872300F
:102600000023036602F082F908BD08B5836A0268F8
:10261000126812F0200F14D10022A3F85A20196872
:102620000A6822F480720A6019688A6822F001023E
:102630008A6019688A6822F040028A60202283F842
:102640007220184602F062F908BD704708B5806A2A
:10265000FFF7FBFF08BD704710B5846A94F871302E
:10266000DBB2212B0CD094F87230DBB2222B13D0CA
:10267000636F43F0100363672046FFF7ECFF10BD64
:1026800023689B6813F0800FEDD00023A4F852302C
:102690002046FFF7C6FDE6E723689B6813F0400F6E
:1026A000E6D00023A4F85A302046FFF7C3FDDFE749
:1026B00038B504460268D3691168906813F00F05B5
:1026C0000CD113F0200F09D011F0200F06D0236E8B
:1026D000002B00F093802046984738BD002D6FD026
:1026E00010F0010502D111F4907F69D013F0010FB1
:1026F00007D011F4807F04D001201062626F024382
:10270000626713F0020F07D035B122680220106211
:10271000626F42F00402626713F0040F07D035B114
:10272000226804201062626F42F00202626713F0B6
:10273000080F09D011F0200F00D12DB12268082018
:102740001062626F02436267626F002A56D013F014
:10275000200F06D011F0200F03D0236E0BB12046BE
:102760009847636F13F0080F04D123689B6813F038
:10277000400F1FD02046FFF75DFD23689A6812F0D6
:10278000400F13D09A6822F040029A60E36E4BB17A
:102790001D4A9A63E06EFEF734F878B3E06E836BFF
:1027A000984738BD2046FFF756FF38BD2046FFF753
:1027B00052FF38BD2046FFF74EFF0023636738BD48
:1027C00013F4801F02D010F4800F0AD113F0800F91
:1027D0000ED011F0800F0BD0636E7BB1204698476E
:1027E00038BD4FF480131362204600F0CAFA38BD9A
:1027F00013F0400F02D011F0400F00D138BD204639
:10280000FFF78BFEFAE700BF0D28000808B5806AC5
:102810000023A0F85A30A0F85230FFF71CFF08BD83
:102820002DE9784B044601688368026913434269C5
:102830001343C26913430868A14A024013430B6063
:102840002268536823F44053E1680B435360A36943
:1028500022689C498A4201D0216A0B43916821F485
:1028600030610B4393602368974A93421CD0974A88
:1028700093422DD0934A934243D01025914A9342DC
:102880005ED0E369B3F5004F00F0CD80082D00F273
:102890006781DFE815F026013D014701650152011E
:1028A0006501650165015C0102F55842D2F8882096
:1028B00002F00302032A09D8DFE802F002043C0612
:1028C0000125DBE70425D9E70825D7E71025D5E75B
:1028D00002F5E632D2F8882002F00C020C2A0ED85B
:1028E000DFE802F0070D0D0D090D0D0D2A0D0D0D80
:1028F0000B000025C2E70425C0E70825BEE7102528
:10290000BCE702F5C832D2F8882002F44062B2F582
:10291000806F0BD007D9B2F5006F0FD0B2F5406FC2
:1029200006D10825AAE71AB90025A7E70425A5E7D7
:102930001025A3E70225A1E702259FE702259DE7D1
:10294000082D11D8DFE805F0081005100C10101044
:1029500013005F4800260DE0FEF760FD002609E049
:10296000FEF742F9002605E00020012602E04FF4C0
:1029700000400026002800F0C580626802EB420398
:102980009842C0F0F080B0EB023F00F2EE80082DDC
:1029900046D8DFE805F005451F45294545453B007C
:1029A000FEF73CFD00234FEA10694FEA00286268F9
:1029B000500818EB000B49F1000C58466146FDF732
:1029C0001DFCA0F54072434B9A4200F2D080236870
:1029D000D86097E0550800233F480021401941F195
:1029E0000001FDF70BFCECE7FEF7FEF800234FEAD1
:1029F00010694FEA00286268500818EB000B49F193
:102A0000000C58466146FDF7F9FBDAE75008002153
:102A1000002310F5000041F10001FDF7EFFBD0E7C6
:102A200001260020CDE7082D58D8DFE805F0051F66
:102A30002A57355757574000FEF7F0FC6268530895
:102A400003EB4003B3FBF2F39BB20026A3F11001AA
:102A50004FF6EF72914200F28C809AB222F00F0290
:102A6000C3F3420313432268D3604BE0FEF7E6FC56
:102A70006268530803EB4003B3FBF2F39BB20026FA
:102A8000E4E76268530803F1F47303F59043B3FB82
:102A9000F2F39BB20026D9E7FEF7A6F86268530866
:102AA00003EB4003B3FBF2F39BB20026CEE7626870
:102AB000530803F58033B3FBF2F39BB20026C5E75E
:102AC000F369FFEF008000400038014000440040FF
:102AD0000024F400FFFC0F00000024F40126002372
:102AE000B4E7FEF79BFC636800EB5300B0FBF3F028
:102AF00080B20026A0F110024FF6EF739A423AD846
:102B00002368D8600023236663663046BDE8788B6F
:102B1000FEF794FC636800EB5300B0FBF3F080B267
:102B20000026E7E76368580800F5740000F51050C8
:102B3000B0FBF3F080B20026DCE7FEF755F86368DF
:102B400000EB5300B0FBF3F080B20026D2E76368DD
:102B5000580800F50040B0FBF3F080B20026C9E74A
:102B600001260020C6E70126CCE70126CAE7012698
:102B7000C8E70126C6E70126C4E700BF436A13F091
:102B8000010F06D00268536823F40033816A0B43B7
:102B90005360436A13F0020F06D00268536823F4AF
:102BA0008033C16A0B435360436A13F0040F06D0AD
:102BB0000268536823F48023016B0B435360436A1C
:102BC00013F0080F06D00268536823F40043416BEA
:102BD0000B435360436A13F0100F06D002689368EA
:102BE00023F48053816B0B439360436A13F0200FEF
:102BF00006D00268936823F40053C16B0B439360C3
:102C0000436A13F0400F0AD00268536823F480131C
:102C1000016C0B435360036CB3F5801F0BD0436A08
:102C200013F0800F06D00268536823F40023816CF0
:102C30000B43536070470268536823F4C003416C30
:102C40000B435360EBE72DE9F04105460F4616466E
:102C50009846069C2B68DB6937EA03030CBF012307
:102C60000023B3421ED1B4F1FF3FF3D02CB1FDF7E6
:102C700061FCA0EB08008442ECD22A68136823F4BC
:102C8000D07313602A68936823F0010393602023B4
:102C900085F8713085F87230002385F87030032094
:102CA000BDE8F0810020BDE8F08130B583B0044676
:102CB00000234367FDF73EFC054623681B6813F0BD
:102CC000080F0ED123681B6813F0040F17D12023BF
:102CD00084F8713084F87230002084F8700003B0FA
:102CE00030BD6FF07E430093034600224FF4001185
:102CF0002046FFF7A8FF0028E4D00320EFE76FF09D
:102D00007E4300932B4600224FF480012046FFF7BC
:102D10009AFF0028DBD00320E1E778B310B5044622
:102D200090F871300BB3242384F871302268136853
:102D300023F0010313602046FFF772FD01281FD026
:102D4000636ABBB92268536823F4904353602268D6
:102D5000936823F02A0393602268136843F0010309
:102D600013602046FFF7A1FF10BD80F8703002F01D
:102D7000C5FAD8E72046FFF701FFE3E701207047D7
:102D800010BD7047842801D0033070470020704781
:102D900008B500F06FFD002008BD2DE9F04387B0B5
:102DA00004460F464569BDB18669AEB1D0F80480CE
:102DB000D0F80090B0F90800FFF7E4FF226902960E
:102DC000019500903B464946404600F0F5FC0590D1
:102DD000059807B0BDE8F08365682668D4F81080D0
:102DE000B4F90800FFF7CEFF05AB019300903B4616
:102DF0001FFA88F23146284600F009FD0128E7D085
:102E00000020E6E708B5034600B90123184600F0A4
:102E1000D3FE002008BD08B5416819B1012000F0BB
:102E2000AAFA08BD012000F09BFA08BD10B582B0D7
:102E300082684AB1C3683BB14168006800240094CD
:102E400000F046F902B010BD00224168006800F0B1
:102E50008FF9F7E708B501F015F8012801D001F066
:102E600091FA08BD00F1080343604FF0FF32826021
:102E7000C360036100230360704700230361704750
:102E800043684B609A688A609A68516099600861EB
:102E9000036801330360704730B40D68B5F1FF3F3C
:102EA00002D000F1080202E0026904E01A46536809
:102EB0001C68A542FAD253684B6099608A605160E1
:102EC000086103680133036030BC704703694268DE
:102ED000816891608268416851605A68904205D06B
:102EE00000220261186801381860704782685A60D1
:102EF000F6E710B5044601F0D5F9A26BE36B9A42F0
:102F000004D0002401F0F0F9204610BD0124F9E7B7
:102F100010B5044601F0C6F9A36B23B1002401F0FB
:102F2000E3F9204610BD0124F9E770B504461646C2
:102F3000856B026C4AB9036853BB406801F00AF81C
:102F4000002363600135A56370BD6EB9806802F02F
:102F5000B9FA226CA3681344A3606268934219D340
:102F60002368A3600020EDE7C06802F0ABFA236C91
:102F70005B42E2681A44E26021688A4202D26268D7
:102F80001344E360022E07D145B1013D0020D9E78B
:102F90000020D7E70020D5E70020D3E70020D1E7C5
:102FA000026C72B110B50346C4681444C460406832
:102FB000844201D31868D8600846D96802F082FAC2
:102FC00010BD704738B5054601F06CF995F84540DD
:102FD00064B201E0013C64B2002C0ADD6B6A43B1CB
:102FE00005F1240000F0B0FE0028F3D000F042FF0D
:102FF000F0E7FF2385F8453001F076F901F052F94A
:1030000095F8444064B201E0013C64B2002C0ADD52
:103010002B6943B105F1100000F096FE0028F3D0B3
:1030200000F028FFF0E7FF2385F8443001F05CF959
:1030300038BD000038B530B304460D4601F032F912
:103040002168E26B236C03FB021060600020A06328
:10305000A160013A02FB0313E360FF2384F84430CC
:1030600084F84530C5B92369F3B104F1100000F0CC
:103070006BFEC8B14FF080520D4B1A60BFF34F8FFB
:10308000BFF36F8F10E04FF0500383F31188BFF34D
:103090006F8FBFF34F8FFEE704F11000FFF7E2FEE2
:1030A00004F12400FFF7DEFE01F01EF9012038BD17
:1030B00004ED00E010B5029B0C4639B11A60D863EC
:1030C0001C6401211846FFF7B5FF10BD1B60F6E731
:1030D00040B94FF0500383F31188BFF36F8FBFF3F4
:1030E0004F8FFEE710B584B0044663B1A2B1A9B119
:1030F0000120A8B94FF0500383F31188BFF36F8FFD
:10310000BFF34F8FFEE74FF0500383F31188BFF3F7
:103110006F8FBFF34F8FFEE70120EAE70020E8E75B
:103120000AB901B1002040B94FF0500383F3118870
:10313000BFF36F8FBFF34F8FFEE7482003900398D4
:10314000482808D04FF0500383F31188BFF36F8FE6
:10315000BFF34F8FFEE720461C46012384F846301C
:1031600000949DF81830FFF7A5FF204604B010BD6D
:1031700040B94FF0500383F31188BFF36F8FBFF353
:103180004F8FFEE7F0B583B0064611B101FB00F0AA
:1031900000E0002017460C46483001F017FA0546BB
:1031A00050B1002380F8463000903B4600F14802C1
:1031B00021463046FFF77EFF284603B0F0BD0000F1
:1031C000F0B585B0019260B1044699B10125BDB951
:1031D0004FF0500383F31188BFF36F8FBFF34F8F0E
:1031E000FEE74FF0500383F31188BFF36F8FBFF3F7
:1031F0004F8FFEE7026C0AB90125E8E70025E6E7F4
:10320000022B09D06DB94FF0500383F31188BFF33F
:103210006F8FBFF34F8FFEE7E26B012AF2D00025DC
:10322000F0E71E460F4600F02DFE10B9019B03B1DA
:10323000002545B94FF0500383F31188BFF36F8F1A
:10324000BFF34F8FFEE700252CE03246394620467B
:10325000FFF76BFE636A8BB104F1240000F074FD8C
:1032600038B14FF08052374B1A60BFF34F8FBFF326
:103270006F8F01F039F8012005B0F0BD0028F8D0BB
:103280004FF080522F4B1A60BFF34F8FBFF36F8FF9
:10329000EFE701F029F80020EEE72046FFF792FE65
:1032A00000F0BAFB00F0FEFFA26BE36B9A42CCD3B6
:1032B000022ECAD0019B002BEBD01DB902A800F052
:1032C00085FD012501F010F800F00CFB00F0EAFF8D
:1032D00094F844305BB2B3F1FF3F02D1002384F88D
:1032E000443094F845305BB2B3F1FF3F02D1002384
:1032F00084F8453000F0F8FF01A902A800F07AFD3B
:10330000C8B92046FFF7F5FD0028C6D0019904F1A1
:10331000100000F0FFFC2046FFF754FE00F07CFB9D
:103320000028BFD14FF08052064B1A60BFF34F8F79
:10333000BFF36F8FB6E72046FFF744FE00F06CFB4B
:10334000002099E704ED00E048B108B50021416094
:103350000160C1600B460A46FFF732FF08BD7047A7
:1033600010B5024600210120FFF702FF0446FFF7D7
:10337000EBFF204610BD10B582B000900B46002236
:1033800011460120FFF7A4FE0446FFF7DDFF2046AB
:1033900002B010BD2DE9F04184B0019260B1044645
:1033A00099B10125BDB94FF0500383F31188BFF3E4
:1033B0006F8FBFF34F8FFEE74FF0500383F31188F9
:1033C000BFF36F8FBFF34F8FFEE7026C0AB9012581
:1033D000E8E70025E6E71F46884600F053FD10B9F0
:1033E000019B03B1002545B94FF0500383F31188C9
:1033F000BFF36F8FBFF34F8FFEE700265DE0E668F7
:1034000041462046FFF7CCFDDFB9013DA5632368A7
:1034100013B900F0FBFD6060236963B104F1100093
:1034200000F092FC38B14FF08052454B1A60BFF368
:103430004F8FBFF36F8F00F057FF012004B0BDE83E
:10344000F081E660636A002BF5D004F1240000F0FF
:103450007BFC0028EFD04FF08052394B1A60BFF34D
:103460004F8FBFF36F8FE6E700F03EFF0020E5E7E8
:1034700002A800F0ABFC012629E0002384F84430C8
:1034800031E0002384F8453033E000F00BFF606842
:1034900000F008FD00F028FF3BE02046FFF792FD1A
:1034A00000F0BAFA09E02046FFF78CFD00F0B4FA0C
:1034B0002046FFF72DFD002840D100F0F3FEA56B5C
:1034C000002D9CD1019B002BCED0002ED0D000F03F
:1034D0000BFF00F007FA00F0E5FE94F844305BB211
:1034E000B3F1FF3FC9D094F845305BB2B3F1FF3F71
:1034F000C7D000F0F9FE01A902A800F07BFC00286B
:10350000D1D12046FFF704FD0028C6D02368002B48
:10351000BBD0019904F1240000F0FCFB2046FFF72A
:1035200051FD00F079FA0028C7D14FF08052044BCA
:103530001A60BFF34F8FBFF36F8FBEE700207DE7A8
:1035400004ED00E0094B9B6A1B6843B9012343B9B2
:10355000064B9A6AD268D2685268DA6270470023D2
:10356000F5E74FF0FF32014BDA627047340000207C
:103570002DE9F04780469946089D099F0A9C266BD5
:1035800002F18042013A06EB820626F0070600238C
:103590000F2B07D8C85CE21882F83400CA5C0AB165
:1035A0000133F5E7002384F84330062D00D90625C2
:1035B000E56265644FF0000AC4F848A0201DFFF7DB
:1035C0005CFC04F11800FFF758FC2461C5F1070505
:1035D000A5616462C4F84CA084F850A04A464146F4
:1035E000304600F035FE206007B13C60BDE8F08752
:1035F00070B5002407E004EB8402930010481844DF
:10360000FFF730FC0134062CF5D90E4C04F1BC0652
:103610003046FFF727FC04F1D0052846FFF722FCCF
:1036200004F11400FFF71EFC04F1E400FFF71AFC9C
:103630002046FFF717FCA662C4F8F85070BD00BF23
:10364000640000203400002038B5054600F02AFE52
:10365000264BD3F8FC200132C3F8FC20D3F800310C
:10366000002B38D0214BD3F804314BB91F4BD3F882
:103670000031DA6AEB6A9A4202D81C4BC3F8005157
:103680001A4CD4F808310133C4F80831EB6A01222E
:103690009A40D4F80C110A43C4F80C2104F130000C
:1036A00003EB83039A00291D1044FFF7E9FB00F0A8
:1036B0001BFED4F804316BB1D4F80031DA6AEB6A3E
:1036C0009A4207D24FF08052094B1A60BFF34F8FD6
:1036D000BFF36F8F38BD054BC3F80051D3F8FC30F2
:1036E000012BCDD1FFF784FFCAE700BF34000020D3
:1036F00004ED00E010B5044690F8513063B1012BA1
:1037000011D0022B12D04FF0500383F31188BFF376
:103710006F8FBFF34F8FFEE7006B00F0DDFF204699
:1037200000F0DAFF10BD00F0D7FF10BD10BD0000A3
:1037300070B504460E461F4BD3F81051D3F8000164
:103740000430FFF7C3FB60B91A4BD3F80021D16AEC
:10375000012202FA01F1D3F80C2122EA0102C3F896
:103760000C21B4F1FF3F12D02C44124BD3F800319E
:103770005C60A54214D80F4DA86AD5F80011043139
:10378000FFF78AFBEB6A9C4200D2EC6270BD002E10
:10379000EAD00848D0F800110431FFF771FB70BD82
:1037A000044BD3F8F800D3F800110431FFF774FB91
:1037B00070BD00BF3400002030B587B00B9D0C9C5D
:1037C0004DB18CB94FF0500383F31188BFF36F8F65
:1037D000BFF34F8FFEE74FF0500383F31188BFF321
:1037E0006F8FBFF34F8FFEE72563022584F851509A
:1037F00000250395029405AD01950A9D0095FFF7FC
:10380000B7FE2046FFF720FF059807B030BD2DE931
:10381000F04385B006460F4615469846900000F0E6
:10382000D5FE10B38146542000F0D0FE0446C0B14E
:10383000C0F83090DCB1002384F851300393029437
:103840000D9B01930C9B009343462A463946304614
:10385000FFF78EFE2046FFF7F7FE012005B0BDE81A
:10386000F083484600F038FFE4E70024E2E74FF039
:10387000FF30F3E710B588B000240594069407AA3A
:1038800006A905A801F0E0F9059B0293069B0193A8
:1038900000942346079A10491048FFF78DFF18B18E
:1038A00001231BB908B010BD0023FAE74FF0500305
:1038B00083F31188BFF36F8FBFF34F8F084B4FF027
:1038C000FF32DA620122C3F804210022C3F810217A
:1038D00000F084FDE6E700BFDC5500085D3C000811
:1038E00034000020034AD2F818310133C2F81831ED
:1038F000704700BF34000020014BD3F8100170471F
:10390000340000202DE9F041424BD3F81831002B50
:1039100070D1404BD3F810510135C3F81051CDB9D7
:103920009B6A1B6843B14FF0500383F31188BFF3C8
:103930006F8FBFF34F8FFEE7364B9A6AD3F8F810BC
:103940009962C3F8F820D3F81C210132C3F81C2176
:10395000FFF7F8FD2F4BDB6A9D423FD200242D4A32
:10396000D2F80031DB6A03EB830399000A44136B3E
:10397000012B46D9012444E00124264B9B6A1B6895
:1039800073B3002373BB234B9B6ADB68DE687368E9
:103990009D422CD306F104084046FFF797FAB36A1C
:1039A0001BB106F11800FFF791FAF36A01229A4061
:1039B000184FD7F80C110A43C7F80C2107F1300053
:1039C00003EB83039A0041461044FFF759FAF26A69
:1039D000D7F80031DB6A9A42CED2CEE70024CCE79A
:1039E0000123CFE74FF0FF320A4BDA62B7E7094A0B
:1039F000D362B4E7074AD2F820310133C2F820314C
:103A00000024044BD3F8243103B101242046BDE83F
:103A1000F08100BF340000203A4BD3F8183143B98D
:103A20004FF0500383F31188BFF36F8FBFF34F8FB5
:103A3000FEE770B500F036FC324BD3F81821013A9E
:103A4000C3F81821D3F81831002B57D12D4BD3F8D8
:103A5000FC3023B9002400F047FC204670BD002450
:103A6000284B5B692BB3274D2B6ADC6804F11800E7
:103A7000FFF72CFA261D3046FFF728FAE36A0122E9
:103A80009A40D5F80C110A43C5F80C2105F1300015
:103A900003EB83039A0031461044FFF7F1F9E26A21
:103AA000D5F80031DB6A9A42DAD30122C5F8242125
:103AB000D6E70CB1FFF746FD124BD3F820417CB995
:103AC000104BD3F82431DBB14FF080520E4B1A600B
:103AD000BFF34F8FBFF36F8F0124BCE7013C08D0C9
:103AE000FFF710FF0028F9D00122064BC3F824216C
:103AF000F4E70022034BC3F82021E1E70024AAE702
:103B00000024A8E73400002004ED00E038B550B1EF
:103B1000054689B94FF0500383F31188BFF36F8FC7
:103B2000BFF34F8FFEE74FF0500383F31188BFF3CD
:103B30006F8FBFF34F8FFEE71D4BD3F8183143B1A2
:103B40004FF0500383F31188BFF36F8FBFF34F8F94
:103B5000FEE70C46FFF7C6FE154BD3F810012A68A6
:103B60001444904216D2A2421AD9A0421AD300227B
:103B70002C601AB10021201AFFF7DAFDFFF74CFF85
:103B800038B94FF080520B4B1A60BFF34F8FBFF321
:103B90006F8F38BDA24207D8A04207D30022E7E7C3
:103BA0000022E5E70122E3E70122E1E70122DFE766
:103BB0003400002004ED00E010B5B0B10446104B15
:103BC000D3F8183143B14FF0500383F31188BFF39A
:103BD0006F8FBFF34F8FFEE7FFF784FE0021204673
:103BE000FFF7A6FDFFF718FF00E0002038B94FF0FF
:103BF0008052044B1A60BFF34F8FBFF36F8F10BD1D
:103C00003400002004ED00E038B5134BD3F8143134
:103C10000BB3FFF767FE104BD3F8E440FFF7FCFE51
:103C2000002CF2D000F03EFB0B4CD4F8F030DD68F5
:103C3000281DFFF74BF9D4F8FC30013BC4F8FC30E9
:103C4000D4F81431013BC4F8143100F04DFB284680
:103C5000FFF750FDD9E738BD3400002008B5FFF765
:103C6000D3FF064B1B6B012BF9D94FF08052044B4D
:103C70001A60BFF34F8FBFF36F8FF0E7340000205F
:103C800004ED00E0224BD3F81831CBB9204A0023D1
:103C9000C2F82431D2F80C31B3FA83F3DBB2C3F1AA
:103CA0001F0303EB830081000A44126B6AB94FF0D3
:103CB000500383F31188BFF36F8FBFF34F8FFEE77D
:103CC0000122134BC3F82421704710B4104A990005
:103CD000CC18A0001044446B64684463303219442B
:103CE000880001460830024494420BD0084903EB97
:103CF00083039A000A44536BDB68C1F800315DF816
:103D0000044B70476068024A0A445063EEE700BF04
:103D10003400002040B94FF0500383F31188BFF303
:103D20006F8FBFF34F8FFEE710B50C46054BD3F8EE
:103D300000111831FFF7B0F801212046FFF7F8FC19
:103D400010BD00BF3400002038B5C368DC684CB338
:103D500004F118052846FFF7B9F81A4BD3F81831C3
:103D60004BBB251D2846FFF7B1F8E36A01219940B6
:103D7000144AD2F80C010143C2F80C11303203EBA3
:103D80008303980029461044FFF77AF8E26A0D4B46
:103D9000D3F80031DB6A9A4212D90120094BC3F8EB
:103DA000240138BD4FF0500383F31188BFF36F8FA8
:103DB000BFF34F8FFEE729460348FFF761F8E5E7B9
:103DC000002038BD340000204800002038B1084AE7
:103DD000D2F81C110160D2F81021426070474FF0F8
:103DE000500383F31188BFF36F8FBFF34F8FFEE74C
:103DF0003400002038B5D0B1044609B30D4600F0B8
:103E000051FA1B4BD3F810112B68B3F1FF3F2BD0A5
:103E10002068174AD2F81C21904202D06268914271
:103E200024D26268881A834213D8012418E04FF024
:103E3000500383F31188BFF36F8FBFF34F8FFEE7FB
:103E40004FF0500383F31188BFF36F8FBFF34F8F91
:103E5000FEE7521A13442B602046FFF7B7FF0024F9
:103E600000F042FA204638BD0024F9E70124F7E7C4
:103E7000340000200122024BC3F82421704700BF08
:103E800034000020064BD3F804312BB1044BD3F897
:103E900018311BB90220704701207047002070477D
:103EA0003400002000284FD038B50546C36A2749A2
:103EB000D1F80011C96A8B4218D28169002906DB4A
:103EC0002249D1F80011C96AC1F10701816168690D
:103ED00003EB830399001E4B0B44984207D0002349
:103EE0003BB91A4BD3F80031DB6AEB6238BD0123D2
:103EF000F6E72C1D2046FEF7E9FF80B9EA6A02EBDF
:103F000082039900114B0B441B6B43B9012393406F
:103F10000E49D1F80C2122EA0302C1F80C210B480A
:103F2000D0F80031DB6AEB6201229A40D0F80C1124
:103F30000A43C0F80C21303003EB83039A0021467A
:103F40001044FEF79DFF38BD704700BF34000020CD
:103F500064000020002850D038B504462A4AD2F820
:103F60000021904208D04FF0500383F31188BFF333
:103F70006F8FBFF34F8FFEE7826C42B94FF0500353
:103F800083F31188BFF36F8FBFF34F8FFEE7013AC2
:103F90008264C06A616C884231D092BB251D28467C
:103FA000FEF794FF88B9E26A02EB82039900164B90
:103FB0000B441B6B4BB9012303FA02F21249D1F8EF
:103FC0000C3123EA0203C1F80C31636CE362C3F1E4
:103FD0000702A261012404FA03F10B4AD2F80C0192
:103FE0000143C2F80C11303203EB830398002946D9
:103FF0001044FEF745FF204638BD002070470020E2
:1040000038BD002038BD00BF34000020064BD3F877
:1040100000312BB1044BD3F80021936C013393642E
:10402000014BD3F80001704734000020F8B5074673
:104030000C4615461E4600F035F9244BD3F80031E6
:1040400093F85030DBB2022B0CD0204BD3F8002178
:10405000D06C20EA0700D064D3F80031012283F845
:1040600050201EBB00F040F900F01CF925B1174BA1
:10407000D3F80031DB6C2B60144BD3F8003193F88C
:104080005030DBB2012B1ED0104BD3F80031D96C6D
:1040900021EA0401D96401240C4BD3F80031002239
:1040A00083F8502000F020F92046F8BD1146304634
:1040B000FFF73EFB4FF08052054B1A60BFF34F8F66
:1040C000BFF36F8FCEE70024E6E700BF3400002087
:1040D00004ED00E02DE9F843089E10B3044699462C
:1040E00015460F4600F0EEF9EFF311884FF050033C
:1040F00083F31188BFF36F8FBFF34F8FB9F1000FB8
:1041000002D0E36CC9F8003094F85030DBB20222E0
:1041100084F850206A1E032A2AD8DFE802F00B1C1C
:1041200021244FF0500383F31188BFF36F8FBFF347
:104130004F8FFEE7E26C1743E7640125012B3ED168
:10414000A36ACBB14FF0500383F31188BFF36F8F95
:10415000BFF34F8FFEE7E26C0132E2640125EDE729
:10416000E7640125EAE7022B04D0E7640125E5E7CF
:104170000125E3E70025E1E7194BD3F818311BBB14
:10418000271D3846FEF7A2FEE36A01219940144A32
:10419000D2F80C010143C2F80C11303203EB830357
:1041A000980039461044FEF76BFEE26A0C4BD3F8D8
:1041B0000031DB6A9A4202D966B10123336088F389
:1041C00011882846BDE8F88304F118010548FEF778
:1041D00057FEEAE70122024BC3F82421EFE700BFB4
:1041E00034000020480000200B4B1B68B3F1FF3F58
:1041F00008D04FF0500383F31188BFF36F8FBFF3E4
:104200004F8FFEE74FF0500383F31188BFF36F8F9A
:10421000BFF34F8FFEE700BF000000200648006894
:10422000006880F3088862B661B6BFF34F8FBFF3B2
:104230006F8F00DF00BF000008ED00E0DFF80C002A
:10424000016841F4700101607047000088ED00E0F2
:104250004FF0807340F8043C21F0010140F8081C45
:10426000054B40F80C3C40F8202C6FF0020340F85E
:10427000243C4438704700BFE941000800000000BA
:10428000074B19680868B0E8F04F80F30988BFF35E
:104290006F8F4FF0000080F311887047AFF30080FC
:1042A000340100204FF0500383F31188BFF36F8F68
:1042B000BFF34F8F0A4A136801331360012B0DD1EE
:1042C000084B1B6813F0FF0F08D04FF0500383F327
:1042D0001188BFF36F8FBFF34F8FFEE7704700BFAA
:1042E0000000002004ED00E0094B1B6843B94FF0CB
:1042F000500383F31188BFF36F8FBFF34F8FFEE737
:10430000013B034A13600BB983F31188704700BF68
:10431000000000200000000000000000000000007D
:10432000EFF30980BFF36F8F154B1A681EF0100F63
:1043300008BF20ED108A20E9F04F10604DF8043DD1
:104340004FF0500080F31188BFF34F8FBFF36F8F92
:10435000FFF798FC4FF0000080F3118808BC196843
:104360000868B0E8F04F1EF0100F08BFB0EC108ADC
:1043700080F30988BFF36F8F704700BFAFF30080F1
:104380003401002008B54FF0500383F31188BFF3C8
:104390006F8FBFF34F8FFFF7B5FA18B14FF0805210
:1043A000024B1A60002383F3118808BD04ED00E07E
:1043B000064B1B68064AA2FB03239B09013B054AE7
:1043C00013600722044B1A60704700BF10000020E2
:1043D000D34D621014E000E010E000E0314B1A68A9
:1043E000314B9A4219D02F4B1A68304B9A421DD04C
:1043F00000B583B02E4B1A78D2B20192FF221A7008
:104400001B78DBB28DF803309DF8033003F05003C6
:10441000284A1370072353601BE04FF0500383F3C7
:104420001188BFF36F8FBFF34F8FFEE74FF050033C
:1044300083F31188BFF36F8FBFF34F8FFEE71D4AE1
:104440005368013B53609DF803305B00DBB28DF88D
:1044500003309DF8033013F0800FF0D1154A5368F4
:104460001B0203F4E0635360019BDBB2104A13703C
:10447000114B1A6842F470021A601A6842F07042D6
:104480001A60FFF795FF00220C4B1A60FFF7D6FE6B
:104490000B4A136843F040431360FFF7BFFEFFF77A
:1044A000A3FE00BF00ED00E071C20F4170C20F41DA
:1044B00000E400E05C01002020ED00E000000020AE
:1044C00034EF00E0EFF305830F2B0FD9104A9B5C0C
:1044D000DBB2104A1278934208D24FF0500383F3B4
:1044E0001188BFF36F8FBFF34F8FFEE70A4B1B6836
:1044F00003F4E063074A5268934208D94FF050032F
:1045000083F31188BFF36F8FBFF34F8FFEE77047C0
:10451000F0E300E05C0100200CED00E0144A12F032
:10452000070F21D0D11D21F00701C1F53B630833EE
:1045300013440A460E49C1F8B82B0020C1F8BC0B41
:104540001344083B23F00703C1F8C03B58601860D0
:10455000981A50601360C1F8C40BC1F8C80B4FF033
:104560000043C1F8CC3B704740F6B833E2E700BFE8
:104570006401002010B4134B1A6882421CD359689E
:104580005C18A04203D14068014459601846416854
:104590004418A24214D10C4CD4F8C04BA2420DD006
:1045A0005268114441601A6812680260984200D053
:1045B00018605DF8044B70471346DDE70460F5E7CB
:1045C0000260F3E71C0D00206401002070B5044672
:1045D000FFF788F93F4BD3F8C03BC3B13D4BD3F84D
:1045E000CC3B1C426CD1ACB1083414F0070F11D095
:1045F00024F00704083404F007035BB14FF05003C4
:1046000083F31188BFF36F8FBFF34F8FFEE7FFF780
:1046100085FFE3E7002C55D02E4BD3F8C83B9C42D6
:1046200052D82C4BD3F8B85B03F6B83301E02B46D5
:1046300015466A68944202D92A68002AF7D1254AA9
:10464000D2F8C02B954241D01E6808362A681A60FD
:104650006B681B1B102B10D9281910F0070F08D0FE
:104660004FF0500383F31188BFF36F8FBFF34F8F69
:10467000FEE743606C60FFF77DFF6968154AD2F87A
:10468000C83B5B1AC2F8C83BD2F8C42B934202D293
:10469000104AC2F8C43B0F4BD3F8CC3B0B436B60C2
:1046A00000232B60FFF7B8F916F0070F10D04FF07A
:1046B000500383F31188BFF36F8FBFF34F8FFEE773
:1046C0000026EFE70026EDE70026EBE70026E9E706
:1046D000304670BD6401002098B338B50446A0F19F
:1046E000080550F8042C1749D1F8CC1B0A4208D110
:1046F0004FF0500383F31188BFF36F8FBFF34F8FD9
:10470000FEE750F8080C40B14FF0500383F31188D6
:10471000BFF36F8FBFF34F8FFEE722EA010244F829
:10472000042CFFF7DFF854F8041C064AD2F8C83B03
:104730000B44C2F8C83B2846FFF71CFFFFF76CF993
:1047400038BD70476401002082B007EE900AF8EE91
:10475000676A9FED0B7AC6EE877A9FED0A7A67EE5D
:10476000877A9FED097A77EE877AFCEEE77ACDEDCE
:10477000017ABDF80430054A1268536302B07047ED
:104780000040194400B8084700504346E82500207F
:1047900010B5054C00212046FDF7DEFC236843F2EE
:1047A000D4025A6310BD00BFE825002010B5054CA7
:1047B00021461E2000F0C2F9A11C242000F0BEF901
:1047C00010BD00BF340D002008B5024B1888FFF75C
:1047D000BBFF08BD340D002010B582B0012219497D
:1047E0001948FDF737FD0121402000F0E3FA88B1B8
:1047F0000223002205E01549C95C0A44D2B2013304
:10480000DBB2072BF7DDD243D2B2104B1B7ADBB2FF
:10481000934201D002B010BD0C4B9C78E4B20DF174
:104820000601032000F08AF99DF806309C42F1D180
:10483000064B58799A79D97942EA012100F05EF95C
:10484000E8E700BF400D0020F8260020380D0020CA
:1048500010B582B00223002205E01449C95C0A4465
:10486000D2B20133DBB2062BF7DDD243D2B20F490D
:10487000CB79DBB28978CCB2934201D002B010BDC3
:104880000DF10601032000F059F99DF806309C4215
:10489000F4D1064B5B7902A901F8033D0023012204
:1048A00003480068FEF78CFCE8E700BF380D0020E5
:1048B0000C14002010B508220A490B48FDF77CFDB6
:1048C0000221402000F076FA044608B1204610BDCF
:1048D0000548FDF7DDFD034B00221A605A601A728D
:1048E000F4E700BF380D0020F826002008B5064B7D
:1048F0001B79DBB2022B04D0032B04D1FFF76CFF32
:1049000008BDFFF7A5FF08BD380D002010B584B025
:10491000044600F073FA70B1002303930C4B9C42E1
:104920000BD0039B3BB14FF080520A4B1A60BFF390
:104930004F8FBFF36F8F04B010BD074B186803ABE8
:104940000093002301224021FFF7C4FBE9E700BFE9
:10495000F826002004ED00E00010002000B583B030
:104960000DF106011E2000F0E9F80F490A6853080E
:104970000B6012F0010F02D083F030030B600A4B82
:104980001B689B08083B5BB2BDF80620D1180029C4
:1049900001DDADF80610BDF80610242000F0AEF8D9
:1049A00003B05DF804FB00BF0400002000B583B035
:1049B0000DF10601032000F0C1F801A9242000F048
:1049C000BDF89DF806300D4A9370BDF80430D9B299
:1049D00051711B0A93710223002205E00749C95C4B
:1049E0000A44D2B20133DBB2062BF7DDD243D2B296
:1049F000024BDA7103B05DF804FB00BF0800002031
:104A000008B50B48FDF7B8F80121202000F0D2F9D5
:104A1000082208490848FDF787FC0121802000F0A2
:104A2000C9F900B108BD0448FDF714FDFAE700BF5D
:104A30002826002008000020F826002000B585B0B8
:104A400000F0DCF910B905B05DF804FB002304AAFE
:104A500042F8043D09490868009201222021FFF72D
:104A600039FB039B002BEED04FF08052044B1A60B1
:104A7000BFF34F8FBFF36F8FE5E700BF0410002037
:104A800004ED00E010B584B0044600F0B7F970B151
:104A9000002303930C4B9C420BD0039B3BB14FF084
:104AA00080520A4B1A60BFF34F8FBFF36F8F04B071
:104AB00010BD074B186803AB00930023012280212F
:104AC000FFF708FBE9E700BFF826002004ED00E04F
:104AD000041000201E2805D0242805D0032805D066
:104AE0000320704701207047022070470020704764
:104AF0000122014B1A807047440D002070B50E460C
:104B0000FFF7E8FF032812D004460A4D00230122D4
:104B100019462868FEF73EFC074B23F81460002373
:104B20001A4619462868FEF74BFB012070BD00208D
:104B300070BD00BF50250020440D002070B50E460A
:104B4000FFF7C8FF032813D004460A4D00230122B3
:104B500019462868FEF71EFC074B33F814303380E3
:104B600000231A4619462868FEF72AFB012070BD6B
:104B7000002070BD50250020440D002000B583B0FA
:104B80000E4B9A6C42F001029A649B6C03F0010395
:104B90000193019B002205210E20FBF7E3FC0E2070
:104BA000FBF712FD002205210F20FBF7DBFC0F2095
:104BB000FBF70AFD03B05DF804FB00BF00100240E4
:104BC00008B50120FEF71EF9FBE708B5FFF790FFD7
:104BD00000F00EF9FFF76EFE0028FBD0FFF786FE0F
:104BE000F8E7000000B583B0002301220DF10701B2
:104BF00006480068FEF7CEFB0128F5D19DF80700B6
:104C0000FFF7D4FEFFF7FCFEEEE700BF0C14002018
:104C100000B583B0FEF770FE0190FFF7B9FD0121EA
:104C200001A8FEF773FFFFF7C1FDFFF7CDFDF6E723
:104C300000B583B0FEF760FE0190012101A8FEF7E8
:104C400065FFFFF78BFEF8E7034B036054330B60FF
:104C500080231360704700BF4C0D0020F0B5ABB04F
:104C6000002728972F4B299328A8FEF7D4F82E4B1E
:104C700018602E4C21AD26460FCE0FC596E80700D2
:104C800085E80700394621A8FEF787F8284B186009
:104C90001AAD04F11C060FCE0FC596E8070085E893
:104CA000070039461AA8FEF778F8224B186013ADB2
:104CB00004F138060FCE0FC596E8070085E8070017
:104CC000394613A8FEF769F81B4B18600CAD04F1C8
:104CD00054060FCE0FC596E8070085E80700394651
:104CE0000CA8FEF75AF8154B186005AD04F17006D4
:104CF0000FCE0FC596E8070085E80700394605A8DE
:104D0000FEF74BF80E4B186001AD8C3494E80F00A1
:104D100085E80F0039462846FEF788F8094B1860E9
:104D20002BB0F0BD1014002050250020F8540008CE
:104D3000A80F002000100020041000200810002000
:104D40004C2500200C14002010B588B0174BDA6CED
:104D500042F00402DA64DA6C02F004020092009A73
:104D6000DA6C42F00102DA64DA6C02F001020192BC
:104D7000019ADA6C42F00202DA64DB6C03F002039F
:104D80000293029B0A4C002208212046FBF786FE74
:104D9000082303930123049300230593069303A997
:104DA0002046FBF7B7FD08B010BD00BF0010024061
:104DB0000004004810B582B004464FF47A7303FB38
:104DC00001F30A49A1FB03239B0901AA0146002024
:104DD000FFF72CF9012802D0002002B010BD019B82
:104DE00034EA0303F9D00020F7E700BFD34D621087
:104DF0000122014B1A707047A00F0020014B187858
:104E0000704700BFA00F002008B50268064B9A4209
:104E100003D0064B984203D008BDFBF783FB08BDC7
:104E2000FFF70CFEF8E700BF002C01402826002009
:104E3000FEE7000000B5ADB0FBF736FE314AD2F810
:104E4000903023F01803C2F8903014231B930123F1
:104E50001D93219300222292602223920222259206
:104E60002693279328232893072329932A922B926A
:104E70001BA8FBF739FF002834D10F231693032317
:104E80001793002318934FF4C06319934FF4A06352
:104E90001A93042116A8FCF713FA38BB03230193D5
:104EA000002309930A9301A8FCF7B4FB10BB4FF44D
:104EB0000070FBF709FE08BBFCF7AAFA124BA3FB34
:104EC00000308009FBF78CFB0420FBF79FFBFCF70D
:104ED00015FD00220F214FF0FF30FBF743FB2DB0F3
:104EE0005DF804FBAF210948FFF7A2FFBD21074889
:104EF000FFF79EFFC5210548FFF79AFFCC21034825
:104F0000FFF796FF00100240D34D621008560008CC
:104F100008B5FBF7FBFAFFF78DFFFFF715FFFFF76B
:104F20002DFE00F0CBF900F0A1F900F0D9F800F067
:104F300045F9FFF793FEFDF72BFFFEE700B583B0C1
:104F4000214B1A6E42F001021A661A6E02F001023B
:104F50000092009A9A6D42F080529A659B6D03F020
:104F600080530193019B0320FBF7EAFA00221146CC
:104F70006FF00B00FBF7F6FA002211466FF00A0003
:104F8000FBF7F0FA002211466FF00900FBF7EAFA8E
:104F9000002211466FF00400FBF7E4FA00221146EC
:104FA0006FF00300FBF7DEFA00220F216FF0010023
:104FB000FBF7D8FA00220F214FF0FF30FBF7D2FAAF
:104FC00003B05DF804FB00BF0010024000B589B0DB
:104FD000002201461920FBF7C5FA1920FBF7F4FA65
:104FE000154B1A6E42F400621A661B6E03F40063DE
:104FF0000193019B02A903A8FCF730FAFCF71EFA03
:1050000043000E48A0FB03239B0C013B0C480D4AB8
:10501000026040F2E732C2604360002303618360B4
:10502000FCF7D4FE18B1012009B05DF804FB044878
:10503000FCF7A2FDF8E700BF0010024083DE1B432F
:10504000A8250020002C014008B5FDF703FF08BD8E
:1050500008B50248FBF7FDFB08BD00BF682600202D
:1050600008B50248FBF7F5FB08BD00BFB0260020DD
:1050700008B50348FCF7A0FD0248FCF79DFD08BDFC
:10508000A82500202826002008B50248FDF710FBBF
:1050900008BD00BFF82600200F49D1F8883043F43E
:1050A0007003C1F888300D4B1A6842F001021A6093
:1050B000002098601A6822F0A85222F410221A6088
:1050C0004FF48052DA601A6822F480221A609861E4
:1050D0004FF000638B60704700ED00E0001002406D
:1050E00008B50F480F4B03602723436000238360FC
:1050F0006422C260036143618361FCF767FE28B9E3
:1051000008210748FCF794FE28B908BD7921064814
:10511000FFF78EFEF4E77E210348FFF789FEF4E7F0
:1051200028260020004401401856000800B583B02E
:105130000368B3F1804F05D0124A93420ED003B0FA
:105140005DF804FB03F504339A6D42F001029A65A1
:105150009B6D03F001030093009BF0E70A4B1A6E6E
:1051600042F400321A661B6E03F400330193019B74
:10517000002205211920FBF7F5F91920FBF724FA85
:10518000DDE700BF00440140001002400368B3F1B6
:10519000804F00D0704700B587B0202301930223D1
:1051A00002930023039304930123059301A94FF075
:1051B0009040FBF7AFFB07B05DF804FB00B58FB084
:1051C00027484FF080430360002343608360254AF3
:1051D000C26003618361FCF7F9FD38BB0EA94FF48F
:1051E000805341F8103D1E48FCF728FF18BB1C48AF
:1051F000FCF705FE20BB00230793099307A9184875
:10520000FCF7DEFF08BB6023009342F210730193AA
:1052100000220292049269461148FCF769FEC8B95F
:105220000F48FFF7B3FF0FB05DF804FB4B210E48AA
:10523000FFF7FEFDD2E751210B48FFF7F9FDD6E756
:1052400056210948FFF7F4FDD5E75D210648FFF731
:10525000EFFDD8E766210448FFF7EAFDE0E700BF6D
:10526000E82500206A0401001856000808B50F4818
:105270000F4B03600F4B436000238360C3600361E7
:105280000C2242618361C3610362302343624FF4A5
:10529000805383634FF40053C363FDF73EFD00B9B1
:1052A00008BD54210448FFF7C3FDF9E7F8260020A4
:1052B0000038014040420F002856000808B50C484D
:1052C0000C4B03604FF4E133436000238360C36001
:1052D00003610C2242618361C36103624362FDF793
:1052E0001CFD00B908BD69210348FFF7A1FDF9E7DE
:1052F00070270020004400402856000870B588B090
:105300000368414A934204D0404A934256D008B0C1
:1053100070BD04463E4B1A6E42F480421A661B6E04
:1053200003F480430193019B4FF4C063039302266F
:10533000049600250595032306930723079303A9E5
:105340004FF09040FBF7E6FA3248334B036046607B
:105350008560C5608023036145618561C561056223
:10536000FBF77CF900BB2B4BE3669C622B482C4B74
:10537000036002234360102383600023C360802204
:10538000026143618361C3610362FBF767F980B91E
:10539000224BA3669C62002205212520FBF7E2F840
:1053A0002520FBF711F9B2E792211E48FFF740FDD7
:1053B000D9E7A3211B48FFF73BFDE9E7144B9A6DA2
:1053C00042F400329A659B6D03F400330293029B12
:1053D00004230393022604960025059503240694CE
:1053E0000723079303A94FF09040FBF793FA4FF47C
:1053F00000430393049605950694079403A94FF080
:105400009040FBF787FA82E70038014000440040F3
:1054100000100240B02600205800024068260020FC
:105420004400024028560008DFF834D0002103E091
:105430000C4B5B58435004310B480C4B42189A42BA
:10544000F6D30B4A02E0002342F8043B094B9A4290
:10545000F9D3FFF721FE00F011F8FFF759FDFEE741
:105460000000012050560008000000201800002015
:1054700018000020E8270020FEE7000070B50D4E60
:105480000D4CA41BA4100025A54209D10B4E0C4CB9
:1054900000F024F8A41BA4100025A54205D170BD7E
:1054A00056F8253098470135EEE756F825309847ED
:1054B0000135F2E740560008405600084056000803
:1054C0004456000810B5431E0A44914200D110BD55
:1054D00011F8014B03F8014FF7E70000F8B500BFE2
:1054E000F8BC08BC9E467047F8B500BFF8BC08BCC5
:0854F0009E4670470000000019
:1054F800FC550008C14B0008000000000000000037
:10550800800000000000000000000000F8550008BE
:10551800CB4B000803000000000000000002000060
:105528004C1D0020AC0F0020F4550008E54B000886
:1055380002000000000000000002000058140020D3
:10554800F81C0020EC550008114C00080100000070
:1055580000000000800000000C10002054250020EE
:10556800E4550008314C000800000000000000006D
:10557800800000000C120020581C002001000000D0
:1055880001000000AC1C0020B01C0020A086010017
:10559800400D0300801A060000350C0040420F0041
:1055A80080841E0000093D0000127A000024F400E7
:1055B80000366E010048E801006CDC0200000000C3
:1055C80000000000010203040607080900000000AB
:1055D8000102030449444C450000000053656E7302
:1055E8006F720000436F6E74726F6C005458000045
:1055F8005258000064656661756C745461736B0081
:105608002E2E2F5372632F6D61696E2E630000007A
:105618002E2E2F5372632F74696D2E6300000000C5
:105628002E2E2F5372632F75736172742E630000D0
:08563800F4ABFF7F010000004C
:08564000B501000800000000A4
:085648009101000800000000C0
:10565000AAAAAAAA2F000000FFFF00040000000071
:0856600000093D0000000000FC
:040000050800542972
:00000001FF
